:02000002B0004C
:1040000000400B00DA530B00000006000C00050214
:084010000401D51700000000B7
:04401800D0500B0079
:10401C00034613F8012B002AFBD1181A01387047FC
:10402C0009480A49884208B505D0094A824202D09B
:10403C00121A00F09DFF0748074A0021121A00F0DF
:10404C00A5FF014808BD00BF4CE6032040530B0000
:10405C00B8E60320B8E60320FCE7032070B5074E52
:10406C00074C00F063FEA41BA4080025AC4200D151
:10407C0070BD56F8043B98470135F7E7F8520B0032
:10408C001C530B0000F013B808B500F014F8BDE891
:10409C00084000F003BE00F02FBA00F035BA0078EB
:1040AC00B0FA80F04009704701230370704701217A
:1040BC00072000F0ABBE08B50121072000F0B7FEC9
:1040CC004FF4C87000F038FA0021072000F0AFFE62
:1040DC004FF4C87000F030FA0121072000F0A7FE61
:1040EC004FF4C87000F028FA0021072000F09FFE62
:1040FC004FF4C87000F020FA0121072000F097FE61
:10410C004FF4C87000F018FA0021072000F08FFE61
:10411C004FF4C87000F010FA0121072000F087FE60
:10412C004FF4C87000F008FA0021072000F07FFE61
:10413C00C82000F001FA0121072000F078FEC82009
:10414C0000F0FAF90021072000F071FEC82000F001
:10415C00F3F90121072000F06AFEC82000F0ECF909
:10416C000021072000F063FEC82000F0E5F90121D2
:10417C00072000F05CFEC82000F0DEF9BDE8084026
:10418C000021072000F053BE08B50120002100F0EB
:10419C001FF9064B0022C3E90022A2F580329A6077
:1041AC00BDE80840022000F003B900BFB8E60320C8
:1041BC0008B5024B1B685B6C019308BD48020300F9
:1041CC0008B5024B1B685B68019308BD180203001D
:1041DC0008B5024B1B685B69019308BD180203000C
:1041EC0008B5024B1B689B68019308BD2C020300A9
:1041FC0008B5024B1B68DB68019308BD2C02030059
:10420C0008B5024B1B681B69019308BD2C02030007
:10421C0008B5024B1B681B6A019308BD28020300FA
:10422C0008B5024B1B685B6A019308BD28020300AA
:10423C0008B5024B1B689B6A019308BD280203005A
:10424C0008B5024B1B68DB6A019308BD280203000A
:10425C0008B5024B1B681B6B019308BD28020300B9
:10426C0008B5024B1B685B6B019308BD2802030069
:10427C0008B5024B1B681B6C019308BD2802030098
:10428C0008B5024B1B685B69019308BD640203000F
:10429C0008B5024B1B689B68019308BD68020300BC
:1042AC0008B5024B1B68DB68019308BD680203006C
:1042BC0008B5024B1B68DB69019308BD3002030093
:1042CC0008B5024B1B681B6A019308BD3002030042
:1042DC0008B5024B1B68DB68019308BD3C02030068
:1042EC0008B5024B1B681B69019308BD3C02030017
:1042FC0008B5024B1B685B69019308BD3C020300C7
:10430C0008B5024B1B689B69019308BD3C02030076
:10431C0008B5024B1B68DB69019308BD3C02030026
:10432C0008B5024B1B681B6A019308BD3C020300D5
:10433C0008B5024B1B689B6A019308BD3C02030045
:10434C0008B5024B1B681B6C019308BD3C020300B3
:10435C0008B5024B1B681B68019308BD4C02030097
:10436C0008B5024B1B681B69019308BD4C02030086
:10437C0008B5024B1B685B69019308BD4C02030036
:10438C0008B5024B1B689B69019308BD4C020300E6
:10439C0008B5024B1B68DB69019308BD4C02030096
:1043AC0008B5024B1B681B6A019308BD4C02030045
:1043BC0008B5024B1B685B68019308BD2002030023
:1043CC0008B5024B1B685B69019308BD2002030012
:1043DC0008B5024B1B68DB6A019308BD2002030081
:1043EC0008B5034B1B68D3F88830019308BD000057
:1043FC002002030008B5034B1B68D3F894300193DB
:10440C0008BD00002002030008B5024B1B68DB6BE3
:10441C00019308BD4402030008B5024B1B685B689E
:10442C00019308BD4002030008B5024B1B689B6852
:10443C00019308BD4002030008B5024B1B68DB6802
:10444C00019308BD4002030008B5024B1B681B69B1
:10445C00019308BD4002030008B5024B1B685B6961
:10446C00019308BD4002030008B5024B1B689B6911
:10447C00019308BD4002030008B5024B1B68DB69C1
:10448C00019308BD4002030008B5024B1B681B6A70
:10449C00019308BD4002030008B5024B1B681B6B5F
:1044AC00019308BD4002030008B5024B1B685B6B0F
:1044BC00019308BD4002030008B5024B1B681B6C3E
:1044CC00019308BD4002030008B5024B1B685B6CEE
:1044DC00019308BD4002030008B5024B1B685B6DDD
:1044EC00019308BD4002030008B5024B1B689B6D8D
:1044FC00019308BD4002030008B5024B1B681B6802
:10450C00019308BD1C02030008B5024B1B685B68D5
:10451C00019308BD1C02030008B5024B1B681B6C01
:10452C00019308BD1C02030008B5024B1B685B6CB1
:10453C00019308BD1C0203000021FFF741BF0000DE
:10454C00024800230360FFF733BE00BFC4E603201C
:10455C00002240681146FFF797BF002240681146C1
:10456C00FFF7A2BF40680022FFF796BF4068002209
:10457C0081F00101FFF780BF002340681A461946FD
:10458C00FFF772BF002340681A461946FFF764BF55
:10459C00002240681146FFF757BF002240681146C1
:1045AC00FFF742BF406800220221FFF745BF0023FE
:1045BC0040681A46FFF730BF024B03225A60024A8A
:1045CC001A607047C8E60320EC500B007047F8B532
:1045DC00064615460C468F18BC4206D0336814F8B4
:1045EC00011B9B6830469847F6E72846F8BD007CCF
:1045FC000022FFF70DBE007C0021FFF711BE007CEE
:10460C000021FFF715BE007C0021FFF719BE007CCE
:10461C000021FFF71DBE10B514210446FFF73DFD28
:10462C00204610BD38B5044615464FF47A73002267
:10463C00C4E90123094B2174084623602946FFF77E
:10464C0017FEBF3008D16B69DB0705D56868FFF72B
:10465C005BFFE868FFF758FF204638BD30510B0070
:10466C00704710B518210446FFF717FD204610BD02
:10467C00F0B5037D062B8DB00E4600F104074FF00C
:10468C00000412D000F1080515F8011D0A2230466D
:10469C0000F05DF9AF42044419D0002CF4D02E2167
:1046AC00304600F051F90444EEE72F236A463946B0
:1046BC000A208DF80040FFF7E3FD6846FFF7A8FCE1
:1046CC0033680246DB686946304698470446204604
:1046DC000DB0F0BD10B5054B0446112240F8043B5B
:1046EC00002100F053FC204610BD00BF5C510B00B4
:1046FC000346074A10B543F8042B01F1100251F898
:10470C00044B43F8044B9142F9D10A781A7010BD4E
:10471C005C510B0010B59DF8084044EA032343EAB2
:10472C00024242EA016104234160037510BD00009E
:10473C0007B5064B0360CB7800938B784A780978E1
:10474C00FFF7E8FF03B05DF804FB00BF5C510B0002
:10475C00014B024A1A607047D0E6032068510B00E7
:10476C00002340681A46FFF757BE4068002202211A
:10477C00FFF762BE002240681146FFF755BE0022CB
:10478C0040681146FFF760BE002340681A46194680
:10479C00FFF762BE002340681A461946FFF764BE55
:1047AC0040680021FFF788BE40680021FFF78CBEEF
:1047BC004068002281F00101FFF75EBE40680022D4
:1047CC00FFF76ABE002240681146FFF76DBE00225B
:1047DC0040681146FFF758BE40680021FFF784BEC1
:1047EC002DE9F04395B014460D460746FFF772FFCE
:1047FC0000211C220DA8009100F0C8FB40230C9353
:10480C0020466B460CAA0021FFF74AFD04460028FF
:10481C004BD1024601216868FFF716FE0221804643
:10482C0022466868FFF710FE009E81462146002E46
:10483C003BD0002939D17368022B03D00A2B11D03D
:10484C00F669F4E7B8F1000FFAD0716906A80431E3
:10485C0007ADFFF76DFF0FCD3C1D0FC42B68237008
:10486C004146EDE7B9F1000FEAD07469102201A8B6
:10487C0000F08CFB06238DF8143001AD04F1080315
:10488C001834186859682A4603C20833A3421546DF
:10489C00F7D101A906A807ADFFF72AFF0FCD3C1DE4
:1048AC000FC42B6823704946CAE70098FFF7F0FC49
:1048BC00384615B0BDE8F083033802289ABF024B86
:1048CC0053F82000014870476C510B00D4E60320CC
:1048DC0008B500224068FFF7FFFDBDE80840FFF770
:1048EC00EBBF0000024B034A1A6000225A6070476B
:1048FC00D4E6032080510B00F8B506460D468F1800
:10490C000024BD420CD0336815F8011B9B6830465F
:10491C009847031E01DB1C44F3E7002C08BF1C4620
:10492C002046F8BD13B50446084659B10191FFF76E
:10493C006FFB23680199DB680246204602B0BDE894
:10494C001040184702B010BD03689B68184730B57B
:10495C008BB00023012A8DF8243098BF0A2209ACB1
:10496C000D46B1FBF2F101FB125303F0FF03092BCF
:10497C0094BF30333733DBB2AA4204F8013DEFD990
:10498C002146FFF7CFFF0BB030BD0000014B0022DA
:10499C009A607047DCE6032010B504460846217087
:1049AC00FFF786FC00236360204610BD10B504465B
:1049BC00FFF70EFCE060236820465B6998470028EF
:1049CC0008DAFFF705FCE368C01AA3689842F2D333
:1049DC004FF0FF3010BD2DE9F04107460C468E1804
:1049EC000D46B542A5EB040807D03846FFF7DEFFAD
:1049FC00031E02DB05F8013BF3E74046BDE8F081FE
:104A0C00054B02221A60054B054A9A600020C3E947
:104A1C000000FFF7CDBC00BFF8E60320ECE6032056
:104A2C000000FFFF024B1A68024B1A60704700BF70
:104A3C004CE60320FCE6032070474174704708B530
:104A4C00007CFFF775FC20EAE07008BD08B5007C1F
:104A5C00FFF746FC20EAE07008BD08B5007CFFF7C4
:104A6C004FFC40EAE07008BD08B5007CFFF740FC45
:104A7C0040EAE07008BD007CFFF74ABC37B5457CC6
:104A8C0004462DB1207C03B0BDE83040FFF720BCBC
:104A9C00007C0191FFF74CFC00280199F2DC2846C0
:104AAC0003B030BD10B514210446FFF7F6FA2046CA
:104ABC0010BD000010B54FF47A7304460846114639
:104ACC000022C4E90123044B236001232074637486
:104ADC00FFF736FC204610BDE0510B0041747047C7
:104AEC007047704708B50021007CFFF749FC40EA8D
:104AFC00E07008BD08B50121007CFFF741FC40EADD
:104B0C00E07008BD08B5007CFFF732FC20EAE070CD
:104B1C0008BD08B5007CFFF723FC20EAE07008BD57
:104B2C0013B50446007C0191FFF722FC0028019983
:104B3C0001DC607C20B1207CFFF72AFC20EAE070CD
:104B4C0002B010BD007CFFF72BBC10B5142104463D
:104B5C00FFF7A3FA204610BD10B54FF47A73044644
:104B6C0008460021C4E90113044B2360012320747F
:104B7C0063741146FFF7ECFB204610BD14520B007A
:104B8C0010B514220446002100F000FA204610BD96
:104B9C0010B50F4C88B003A8FFF7F2FF2178BFF3D4
:104BAC005B8F11F001010FD120460191FFF777FACD
:104BBC00019948B103AA0748FFF7CEFF2046FFF73B
:104BCC0073FA054800F0CEF9024808B010BD00BFDA
:104BDC0000E7032004E70320ED4A0B0000224068A5
:104BEC001146FFF731BC002240681146FFF74CBC60
:104BFC00002240681146FFF757BC40680022FFF7BF
:104C0C004BBC4068002281F00101FFF735BC00234A
:104C1C0040681A461946FFF727BC002340681A461D
:104C2C001946FFF719BC002240681146FFF7FCBB80
:104C3C00406800220221FFF7FFBB002340681A46A0
:104C4C00FFF7EABB024B04225A60024A1A60704713
:104C5C0018E7032048520B00014B1860704700BF47
:104C6C0050E6032008B50B4B43B1FFF791FF0368E7
:104C7C001B699847002801DDAFF30080064B43B158
:104C8C0000F04AF903681B699847002801DDAFF36F
:104C9C00008008BD000000000000000008B5FFF710
:104CAC00E1FFFFF795FA014B186008BD34E70320CC
:104CBC000548064A064908B5121A00F059F9054B81
:104CCC00054A1A6008BD00BF00F4032004F4032059
:104CDC00AC530B0000F403201E1C279A07B50023CD
:104CEC0000931A466FF07701FFF784FB03B05DF871
:104CFC0004FB000007B543880A2B08D0502B0BD1BE
:104D0C00094B1B684BB103B05DF804EB1847FFF778
:104D1C00E5FF03B05DF804FB002300931A466FF027
:104D2C007701FFF767FBF4E724E7032010B512487F
:104D3C000021FFF7F9FB114B1A68114B9A42114BEA
:104D4C000CBF012200221A7001D0FFF7B1FFFFF750
:104D5C0037FA044600F022F90B4B13B12046AFF39F
:104D6C00008000210848FFF74FFBBDE810400748C2
:104D7C000021FFF735BB00BF654C0B0000F403208E
:104D8C001E1C279A20E7032000000000014D0B0099
:104D9C00232813B502D9002002B010BDA0F10B03DB
:104DAC00022B1AD8174C2178BFF35B8F11F001013D
:104DBC000BD120460191FFF772F9019928B11248E5
:104DCC00FFF7EAFD2046FFF76FF90F4B1878FFF756
:104DDC0077FA0028DFD10120DEE7012809D800F09E
:104DEC005BF80021007CFFF73BFA80F00100C0B2B9
:104DFC00D2E709380128EED800F08EF8007CFFF7D6
:104E0C008FFAF2E728E703202CE70320232838B594
:104E1C0004460D460AD8FF2908D0FFF7B9FF28B180
:104E2C0029462046BDE83840FFF7DAB938BD38B519
:104E3C0004460D46FFF7DCF9FF2810D0062804D8ED
:104E4C004D2323FA00F0C30709D42046FFF7A0FF37
:104E5C0028B129462046BDE83840FFF7D1B938BD06
:104E6C007047000038B50A4B0360012304464361C8
:104E7C000849202000F074F8202560600549A560E1
:104E8C00284600F06DF8C4E90305204638BD00BF84
:104E9C001800010084520B0030B50E4D2978BFF379
:104EAC005B8F11F0010487B011D12846FFF7F7F89A
:104EBC0068B16846FFF7D6FF6A4621460648FFF7F9
:104ECC00B1FB2846FFF7F0F8044800F04BF8024815
:104EDC0007B030BD38E703203CE703206D4E0B00D4
:104EEC007047000038B5044614252A46002100F00E
:104EFC004DF825804025074925812846258200F05C
:104F0C002FF804496060284600F02AF8E06020463B
:104F1C0038BD00BF84520B0030B50E4D2978BFF35D
:104F2C005B8F11F0010487B011D12846FFF7B7F859
:104F3C0068B101A8FFF7D6FF01AA21460648FFF782
:104F4C00B9FD2846FFF7B0F8044800F00BF802480A
:104F5C0007B030BD50E7032054E70320ED4E0B00A3
:104F6C00FFF799B8002301461A46184600F044B8DA
:104F7C000A44914200F1FF3300D1704710B511F88B
:104F8C00014B03F8014F9142F9D110BD0244034685
:104F9C00934200D1704703F8011BF9E738B5104B69
:104FAC001D68AB6B0446B3B91820FFF7A5FA02468F
:104FBC00A86320B90B4B0C484221FFF7ADFA0B4903
:104FCC000B4BC0E900130B4B83600B238381002137
:104FDC000120C2E90401AB6B00221C615A6138BD8F
:104FEC0050E6032085520B009C520B000E33CDABC8
:104FFC0034126DE6ECDE05002DE9F843DFF8B880DD
:10500C000646D8F800001F460D46914600F056F8AB
:10501C00254B1C6834B9254C1C60254B13B11B68FF
:10502C00C4F8883063681F2B07DDD8F8000000F047
:10503C0047F84FF0FF30BDE8F8834EB3D4F8880042
:10504C0088B91C4B23B9D8F8000000F038F8F0E709
:10505C004FF48470FFF750FA0028F4D00023C0E915
:10506C004033C4F88800636840F8239001229A40CA
:10507C0000EB8301D0F800311343C0F80031022E4D
:10508C00C1F8807002BFD0F804311343C0F804316A
:10509C006368D8F800005A1C0233626044F823504D
:1050AC0000F00EF80020C6E7F4E7032068E70320C1
:1050BC000000000005450B00B4E603207047704764
:1050CC00704700002D400B0069400B0091400B0015
:1050DC0095400B00000000000000000000000000E4
:1050EC00BB450B00B1450B00A7450B009D450B00C4
:1050FC0091450B0085450B00AD470B00B5470B00E8
:10510C0079450B0071450B0067450B005D450B00A5
:10511C00DD480B00E5470B00ED470B0000000000DD
:10512C0000000000D9450B0023460B00FB450B008B
:10513C00DB450B0003460B000B460B0013460B0024
:10514C001B460B00E3490B000000000000000000B0
:10515C007D460B006D460B006F460B0061707000B6
:10516C00C8E6032018E70320D4E603200000000063
:10517C00000000006D470B0077470B0081470B00C8
:10518C008B470B0095470B00A1470B00AD470B005D
:10519C00B5470B00BD470B00C9470B00D1470B00AF
:1051AC00DB470B00DD480B00E5470B00ED470B0020
:1051BC0025592D256D2D25645425483A254D3A2524
:1051CC0053257A0061736374696D650000000000FB
:1051DC0000000000454A0B00B14A0B00894A0B0045
:1051EC0005490B00594A0B00754A0B00674A0B0026
:1051FC00834A0B00E3490B00474A0B004B4A0B0058
:10520C000000000000000000EF4A0B00574B0B00A1
:10521C002D4B0B0005490B001F4B0B00F14A0B00EB
:10522C00014B0B00514B0B00E3490B00114B0B00D6
:10523C00E94A0B000000000000000000474C0B0086
:10524C003D4C0B00334C0B00E94B0B00274C0B0077
:10525C001B4C0B00AD470B00B5470B000F4C0B0064
:10526C00074C0B00FD4B0B00F34B0B00DD480B0008
:10527C00E5470B00ED470B00005245454E54206DA1
:10528C00616C6C6F63207375636365656465640042
:10529C002F746D702F6A656E6B696E732D47434367
:1052AC002D31302D706970656C696E652D34385FE9
:1052BC0032303230313132345F3136303631383091
:1052CC003633392F7372632F6E65776C69622F6E6C
:1052DC0065776C69622F6C6962632F7374646C6997
:1052EC00622F72616E642E630000000095410B000A
:1052FC004D450B00C5450B005D470B00F1480B00FD
:10530C0099490B000D4A0B00314A0B00514C0B0014
:10531C00040000001400000003000000474E55007C
:10532C0086AC812254B00778ECA4B1ECC54F127551
:04533C00FE9F382177
:10534000D0510B0054E603200000000000000000D4
:10535000000000000000000000000000000000004D
:10536000000000000000000000000000000000003D
:10537000000000000000000000000000000000002D
:10538000000000000000000000000000000000001D
:10539000000000000000000000000000000000000D
:0C53A0000000000000000000F8E70320FF
:0453AC0000000000FD
:1053B60000000102030405060708090A0B0C0D0E7E
:1053C6000F101112131415161718191A1B1C1D1E6F
:0453D6001F2028006C
:0453DA0078563412BB
:04000003B000401CED
:00000001FF
